{
  "contractName": "XrystalFactory",
  "abi": [
    {
      "constant": true,
      "inputs": [
        {
          "name": "",
          "type": "uint256"
        }
      ],
      "name": "xrystalToOwner",
      "outputs": [
        {
          "name": "",
          "type": "address"
        }
      ],
      "payable": false,
      "stateMutability": "view",
      "type": "function"
    },
    {
      "constant": true,
      "inputs": [],
      "name": "owner",
      "outputs": [
        {
          "name": "",
          "type": "address"
        }
      ],
      "payable": false,
      "stateMutability": "view",
      "type": "function"
    },
    {
      "constant": true,
      "inputs": [
        {
          "name": "",
          "type": "uint256"
        }
      ],
      "name": "xrystals",
      "outputs": [
        {
          "name": "name",
          "type": "string"
        },
        {
          "name": "dna",
          "type": "uint256"
        },
        {
          "name": "age",
          "type": "uint32"
        },
        {
          "name": "gps",
          "type": "string"
        },
        {
          "name": "data1",
          "type": "string"
        },
        {
          "name": "data2",
          "type": "string"
        }
      ],
      "payable": false,
      "stateMutability": "view",
      "type": "function"
    },
    {
      "constant": false,
      "inputs": [
        {
          "name": "newOwner",
          "type": "address"
        }
      ],
      "name": "transferOwnership",
      "outputs": [],
      "payable": false,
      "stateMutability": "nonpayable",
      "type": "function"
    },
    {
      "anonymous": false,
      "inputs": [
        {
          "indexed": false,
          "name": "xrystalId",
          "type": "uint256"
        },
        {
          "indexed": false,
          "name": "name",
          "type": "string"
        },
        {
          "indexed": false,
          "name": "dna",
          "type": "uint256"
        }
      ],
      "name": "NewXrystal",
      "type": "event"
    },
    {
      "anonymous": false,
      "inputs": [
        {
          "indexed": true,
          "name": "previousOwner",
          "type": "address"
        },
        {
          "indexed": true,
          "name": "newOwner",
          "type": "address"
        }
      ],
      "name": "OwnershipTransferred",
      "type": "event"
    },
    {
      "constant": false,
      "inputs": [
        {
          "name": "_name",
          "type": "string"
        }
      ],
      "name": "createRandomXrystal",
      "outputs": [],
      "payable": false,
      "stateMutability": "nonpayable",
      "type": "function"
    }
  ],
  "bytecode": "0x6060604052610100600155600154600a0a600255336000806101000a81548173ffffffffffffffffffffffffffffffffffffffff021916908373ffffffffffffffffffffffffffffffffffffffff160217905550610dd9806100626000396000f30060606040526004361061006d576000357c0100000000000000000000000000000000000000000000000000000000900463ffffffff1680634b94329814610072578063593d76c8146100cf5780638da5cb5b14610132578063ee05ce9414610187578063f2fde38b14610381575b600080fd5b341561007d57600080fd5b6100cd600480803590602001908201803590602001908080601f016020809104026020016040519081016040528093929190818152602001838380828437820191505050505050919050506103ba565b005b34156100da57600080fd5b6100f06004808035906020019091905050610433565b604051808273ffffffffffffffffffffffffffffffffffffffff1673ffffffffffffffffffffffffffffffffffffffff16815260200191505060405180910390f35b341561013d57600080fd5b610145610466565b604051808273ffffffffffffffffffffffffffffffffffffffff1673ffffffffffffffffffffffffffffffffffffffff16815260200191505060405180910390f35b341561019257600080fd5b6101a8600480803590602001909190505061048b565b60405180806020018781526020018663ffffffff1663ffffffff16815260200180602001806020018060200185810385528b818151815260200191508051906020019080838360005b8381101561020c5780820151818401526020810190506101f1565b50505050905090810190601f1680156102395780820380516001836020036101000a031916815260200191505b50858103845288818151815260200191508051906020019080838360005b83811015610272578082015181840152602081019050610257565b50505050905090810190601f16801561029f5780820380516001836020036101000a031916815260200191505b50858103835287818151815260200191508051906020019080838360005b838110156102d85780820151818401526020810190506102bd565b50505050905090810190601f1680156103055780820380516001836020036101000a031916815260200191505b50858103825286818151815260200191508051906020019080838360005b8381101561033e578082015181840152602081019050610323565b50505050905090810190601f16801561036b5780820380516001836020036101000a031916815260200191505b509a505050505050505050505060405180910390f35b341561038c57600080fd5b6103b8600480803573ffffffffffffffffffffffffffffffffffffffff16906020019091905050610746565b005b600080600560003373ffffffffffffffffffffffffffffffffffffffff1673ffffffffffffffffffffffffffffffffffffffff1681526020019081526020016000205414151561040957600080fd5b6104128261089b565b905060648181151561042057fe5b068103905061042f828261091d565b5050565b60046020528060005260406000206000915054906101000a900473ffffffffffffffffffffffffffffffffffffffff1681565b6000809054906101000a900473ffffffffffffffffffffffffffffffffffffffff1681565b60038181548110151561049a57fe5b9060005260206000209060060201600091509050806000018054600181600116156101000203166002900480601f0160208091040260200160405190810160405280929190818152602001828054600181600116156101000203166002900480156105465780601f1061051b57610100808354040283529160200191610546565b820191906000526020600020905b81548152906001019060200180831161052957829003601f168201915b5050505050908060010154908060020160009054906101000a900463ffffffff1690806003018054600181600116156101000203166002900480601f0160208091040260200160405190810160405280929190818152602001828054600181600116156101000203166002900480156106005780601f106105d557610100808354040283529160200191610600565b820191906000526020600020905b8154815290600101906020018083116105e357829003601f168201915b505050505090806004018054600181600116156101000203166002900480601f01602080910402602001604051908101604052809291908181526020018280546001816001161561010002031660029004801561069e5780601f106106735761010080835404028352916020019161069e565b820191906000526020600020905b81548152906001019060200180831161068157829003601f168201915b505050505090806005018054600181600116156101000203166002900480601f01602080910402602001604051908101604052809291908181526020018280546001816001161561010002031660029004801561073c5780601f106107115761010080835404028352916020019161073c565b820191906000526020600020905b81548152906001019060200180831161071f57829003601f168201915b5050505050905086565b6000809054906101000a900473ffffffffffffffffffffffffffffffffffffffff1673ffffffffffffffffffffffffffffffffffffffff163373ffffffffffffffffffffffffffffffffffffffff161415156107a157600080fd5b600073ffffffffffffffffffffffffffffffffffffffff168173ffffffffffffffffffffffffffffffffffffffff16141515156107dd57600080fd5b8073ffffffffffffffffffffffffffffffffffffffff166000809054906101000a900473ffffffffffffffffffffffffffffffffffffffff1673ffffffffffffffffffffffffffffffffffffffff167f8be0079c531659141344cd1fd0a4f28419497f9722a3daafe3b4186f6b6457e060405160405180910390a3806000806101000a81548173ffffffffffffffffffffffffffffffffffffffff021916908373ffffffffffffffffffffffffffffffffffffffff16021790555050565b600080826040518082805190602001908083835b6020831015156108d457805182526020820191506020810190506020830392506108af565b6001836020036101000a03801982511681845116808217855250505050505090500191505060405180910390206001900490506002548181151561091457fe5b06915050919050565b60006001600380548060010182816109359190610c10565b9160005260206000209060060201600060c060405190810160405280888152602001878152602001600063ffffffff16815260200160206040519081016040528060008152508152602001602060405190810160405280600081525081526020016020604051908101604052806000815250815250909190915060008201518160000190805190602001906109cb929190610c42565b506020820151816001015560408201518160020160006101000a81548163ffffffff021916908363ffffffff1602179055506060820151816003019080519060200190610a19929190610c42565b506080820151816004019080519060200190610a36929190610c42565b5060a0820151816005019080519060200190610a53929190610c42565b505050039050336004600083815260200190815260200160002060006101000a81548173ffffffffffffffffffffffffffffffffffffffff021916908373ffffffffffffffffffffffffffffffffffffffff160217905550610afe6001600560003373ffffffffffffffffffffffffffffffffffffffff1673ffffffffffffffffffffffffffffffffffffffff16815260200190815260200160002054610bf290919063ffffffff16565b600560003373ffffffffffffffffffffffffffffffffffffffff1673ffffffffffffffffffffffffffffffffffffffff168152602001908152602001600020819055507f9908d4e967ebd007bf9152e25cbfce9ab7f28ec0cbe231d3291116906a2582f48184846040518084815260200180602001838152602001828103825284818151815260200191508051906020019080838360005b83811015610bb1578082015181840152602081019050610b96565b50505050905090810190601f168015610bde5780820380516001836020036101000a031916815260200191505b5094505050505060405180910390a1505050565b6000808284019050838110151515610c0657fe5b8091505092915050565b815481835581811511610c3d57600602816006028360005260206000209182019101610c3c9190610cc2565b5b505050565b828054600181600116156101000203166002900490600052602060002090601f016020900481019282601f10610c8357805160ff1916838001178555610cb1565b82800160010185558215610cb1579182015b82811115610cb0578251825591602001919060010190610c95565b5b509050610cbe9190610d40565b5090565b610d3d91905b80821115610d395760008082016000610ce19190610d65565b60018201600090556002820160006101000a81549063ffffffff0219169055600382016000610d109190610d65565b600482016000610d209190610d65565b600582016000610d309190610d65565b50600601610cc8565b5090565b90565b610d6291905b80821115610d5e576000816000905550600101610d46565b5090565b90565b50805460018160011615610100020316600290046000825580601f10610d8b5750610daa565b601f016020900490600052602060002090810190610da99190610d40565b5b505600a165627a7a72305820ca7d52fd731158d23f777b7d9107f80417b6a39e0c0abb0aef7f49afb3df420f0029",
  "source": "pragma solidity ^0.4.19;\n\nimport \"./ownable.sol\";\nimport \"./safemath.sol\";\n\n\ncontract XrystalFactory is Ownable {\n\n    using SafeMath for uint256;\n    using SafeMath for uint32;\n    using SafeMath for uint16;\n\n    event NewXrystal(uint xrystalId, string name, uint dna);\n\n    uint dnaDigits = 256;\n    uint dnaModulus = 10 ** dnaDigits;\n\n    struct Xrystal {\n        string name;\n        uint dna;\n        uint32 age;\n        string gps;\n        string data1;\n        string data2;\n    }\n\n    Xrystal[] public xrystals;\n\n    mapping (uint => address) public xrystalToOwner;\n    mapping (address => uint) ownerXrystalCount;\n\n    function _createXrystal(string _name, uint _dna) internal {\n        uint id = xrystals.push(Xrystal(_name, _dna, 0, \"\", \"\", \"\")) - 1;\n        xrystalToOwner[id] = msg.sender;\n        ownerXrystalCount[msg.sender] = ownerXrystalCount[msg.sender].add(1);\n        NewXrystal(id, _name, _dna);\n    }\n\n    function _generateRandomDna(string _str) private view returns (uint) {\n        uint rand = uint(keccak256(_str));\n        return rand % dnaModulus;\n    }\n\n    function createRandomXrystal(string _name) public {\n        require(ownerXrystalCount[msg.sender] == 0);\n        uint randDna = _generateRandomDna(_name);\n        randDna = randDna - randDna % 100;\n        _createXrystal(_name, randDna);\n    }\n}\n",
  "sourcePath": "/Users/Guest/Desktop/xrystal/contracts/xrystalfactory.sol",
  "compiler": {
    "name": "solc",
    "version": "0.4.21+commit.dfe3193c.Emscripten.clang"
  },
  "schemaVersion": "2.0.0",
  "updatedAt": "2018-04-12T06:37:21.154Z"
}