{
  "contractName": "XrystalOwnership",
  "abi": [
    {
      "constant": false,
      "inputs": [],
      "name": "withdraw",
      "outputs": [],
      "payable": false,
      "stateMutability": "nonpayable",
      "type": "function"
    },
    {
      "constant": false,
      "inputs": [
        {
          "name": "_name",
          "type": "string"
        }
      ],
      "name": "createRandomXrystal",
      "outputs": [],
      "payable": false,
      "stateMutability": "nonpayable",
      "type": "function"
    },
    {
      "constant": true,
      "inputs": [
        {
          "name": "",
          "type": "uint256"
        }
      ],
      "name": "xrystalToOwner",
      "outputs": [
        {
          "name": "",
          "type": "address"
        }
      ],
      "payable": false,
      "stateMutability": "view",
      "type": "function"
    },
    {
      "constant": true,
      "inputs": [],
      "name": "owner",
      "outputs": [
        {
          "name": "",
          "type": "address"
        }
      ],
      "payable": false,
      "stateMutability": "view",
      "type": "function"
    },
    {
      "constant": true,
      "inputs": [
        {
          "name": "_owner",
          "type": "address"
        }
      ],
      "name": "getXrystalsByOwner",
      "outputs": [
        {
          "name": "",
          "type": "uint256[]"
        }
      ],
      "payable": false,
      "stateMutability": "view",
      "type": "function"
    },
    {
      "constant": false,
      "inputs": [
        {
          "name": "_xrystalId",
          "type": "uint256"
        },
        {
          "name": "_newName",
          "type": "string"
        }
      ],
      "name": "changeName",
      "outputs": [],
      "payable": false,
      "stateMutability": "nonpayable",
      "type": "function"
    },
    {
      "constant": true,
      "inputs": [
        {
          "name": "",
          "type": "uint256"
        }
      ],
      "name": "xrystals",
      "outputs": [
        {
          "name": "name",
          "type": "string"
        },
        {
          "name": "dna",
          "type": "uint256"
        },
        {
          "name": "age",
          "type": "uint32"
        },
        {
          "name": "gps",
          "type": "string"
        },
        {
          "name": "data1",
          "type": "string"
        },
        {
          "name": "data2",
          "type": "string"
        }
      ],
      "payable": false,
      "stateMutability": "view",
      "type": "function"
    },
    {
      "constant": false,
      "inputs": [
        {
          "name": "newOwner",
          "type": "address"
        }
      ],
      "name": "transferOwnership",
      "outputs": [],
      "payable": false,
      "stateMutability": "nonpayable",
      "type": "function"
    },
    {
      "anonymous": false,
      "inputs": [
        {
          "indexed": true,
          "name": "_from",
          "type": "address"
        },
        {
          "indexed": true,
          "name": "_to",
          "type": "address"
        },
        {
          "indexed": false,
          "name": "_tokenId",
          "type": "uint256"
        }
      ],
      "name": "Transfer",
      "type": "event"
    },
    {
      "anonymous": false,
      "inputs": [
        {
          "indexed": true,
          "name": "_owner",
          "type": "address"
        },
        {
          "indexed": true,
          "name": "_approved",
          "type": "address"
        },
        {
          "indexed": false,
          "name": "_tokenId",
          "type": "uint256"
        }
      ],
      "name": "Approval",
      "type": "event"
    },
    {
      "anonymous": false,
      "inputs": [
        {
          "indexed": false,
          "name": "xrystalId",
          "type": "uint256"
        },
        {
          "indexed": false,
          "name": "name",
          "type": "string"
        },
        {
          "indexed": false,
          "name": "dna",
          "type": "uint256"
        }
      ],
      "name": "NewXrystal",
      "type": "event"
    },
    {
      "anonymous": false,
      "inputs": [
        {
          "indexed": true,
          "name": "previousOwner",
          "type": "address"
        },
        {
          "indexed": true,
          "name": "newOwner",
          "type": "address"
        }
      ],
      "name": "OwnershipTransferred",
      "type": "event"
    },
    {
      "constant": true,
      "inputs": [
        {
          "name": "_owner",
          "type": "address"
        }
      ],
      "name": "balanceOf",
      "outputs": [
        {
          "name": "_balance",
          "type": "uint256"
        }
      ],
      "payable": false,
      "stateMutability": "view",
      "type": "function"
    },
    {
      "constant": true,
      "inputs": [
        {
          "name": "_tokenId",
          "type": "uint256"
        }
      ],
      "name": "ownerOf",
      "outputs": [
        {
          "name": "_owner",
          "type": "address"
        }
      ],
      "payable": false,
      "stateMutability": "view",
      "type": "function"
    },
    {
      "constant": false,
      "inputs": [
        {
          "name": "_to",
          "type": "address"
        },
        {
          "name": "_tokenId",
          "type": "uint256"
        }
      ],
      "name": "transfer",
      "outputs": [],
      "payable": false,
      "stateMutability": "nonpayable",
      "type": "function"
    },
    {
      "constant": false,
      "inputs": [
        {
          "name": "_to",
          "type": "address"
        },
        {
          "name": "_tokenId",
          "type": "uint256"
        }
      ],
      "name": "approve",
      "outputs": [],
      "payable": false,
      "stateMutability": "nonpayable",
      "type": "function"
    },
    {
      "constant": false,
      "inputs": [
        {
          "name": "_tokenId",
          "type": "uint256"
        }
      ],
      "name": "takeOwnership",
      "outputs": [],
      "payable": false,
      "stateMutability": "nonpayable",
      "type": "function"
    }
  ],
  "bytecode": "0x6060604052610100600155600154600a0a600255336000806101000a81548173ffffffffffffffffffffffffffffffffffffffff021916908373ffffffffffffffffffffffffffffffffffffffff16021790555061183e806100626000396000f3006060604052600436106100c5576000357c0100000000000000000000000000000000000000000000000000000000900463ffffffff168063095ea7b3146100ca5780633ccfd60b1461010c5780634b94329814610121578063593d76c81461017e5780636352211e146101e157806370a08231146102445780638da5cb5b146102915780638f0357d2146102e6578063a9059cbb14610374578063b2e6ceeb146103b6578063c39cbef1146103d9578063ee05ce9414610410578063f2fde38b1461060a575b600080fd5b34156100d557600080fd5b61010a600480803573ffffffffffffffffffffffffffffffffffffffff16906020019091908035906020019091905050610643565b005b341561011757600080fd5b61011f61076d565b005b341561012c57600080fd5b61017c600480803590602001908201803590602001908080601f01602080910402602001604051908101604052809392919081815260200183838082843782019150505050505091905050610842565b005b341561018957600080fd5b61019f60048080359060200190919050506108bb565b604051808273ffffffffffffffffffffffffffffffffffffffff1673ffffffffffffffffffffffffffffffffffffffff16815260200191505060405180910390f35b34156101ec57600080fd5b61020260048080359060200190919050506108ee565b604051808273ffffffffffffffffffffffffffffffffffffffff1673ffffffffffffffffffffffffffffffffffffffff16815260200191505060405180910390f35b341561024f57600080fd5b61027b600480803573ffffffffffffffffffffffffffffffffffffffff1690602001909190505061092b565b6040518082815260200191505060405180910390f35b341561029c57600080fd5b6102a4610974565b604051808273ffffffffffffffffffffffffffffffffffffffff1673ffffffffffffffffffffffffffffffffffffffff16815260200191505060405180910390f35b34156102f157600080fd5b61031d600480803573ffffffffffffffffffffffffffffffffffffffff16906020019091905050610999565b6040518080602001828103825283818151815260200191508051906020019060200280838360005b83811015610360578082015181840152602081019050610345565b505050509050019250505060405180910390f35b341561037f57600080fd5b6103b4600480803573ffffffffffffffffffffffffffffffffffffffff16906020019091908035906020019091905050610ac7565b005b34156103c157600080fd5b6103d76004808035906020019091905050610b45565b005b34156103e457600080fd5b61040e60048080359060200190919080359060200190820180359060200191909192905050610bce565b005b341561041b57600080fd5b6104316004808035906020019091905050610cdf565b60405180806020018781526020018663ffffffff1663ffffffff16815260200180602001806020018060200185810385528b818151815260200191508051906020019080838360005b8381101561049557808201518184015260208101905061047a565b50505050905090810190601f1680156104c25780820380516001836020036101000a031916815260200191505b50858103845288818151815260200191508051906020019080838360005b838110156104fb5780820151818401526020810190506104e0565b50505050905090810190601f1680156105285780820380516001836020036101000a031916815260200191505b50858103835287818151815260200191508051906020019080838360005b83811015610561578082015181840152602081019050610546565b50505050905090810190601f16801561058e5780820380516001836020036101000a031916815260200191505b50858103825286818151815260200191508051906020019080838360005b838110156105c75780820151818401526020810190506105ac565b50505050905090810190601f1680156105f45780820380516001836020036101000a031916815260200191505b509a505050505050505050505060405180910390f35b341561061557600080fd5b610641600480803573ffffffffffffffffffffffffffffffffffffffff16906020019091905050610f9a565b005b806004600082815260200190815260200160002060009054906101000a900473ffffffffffffffffffffffffffffffffffffffff1673ffffffffffffffffffffffffffffffffffffffff163373ffffffffffffffffffffffffffffffffffffffff161415156106b157600080fd5b826006600084815260200190815260200160002060006101000a81548173ffffffffffffffffffffffffffffffffffffffff021916908373ffffffffffffffffffffffffffffffffffffffff1602179055508273ffffffffffffffffffffffffffffffffffffffff163373ffffffffffffffffffffffffffffffffffffffff167f8c5be1e5ebec7d5bd14f71427d1e84f3dd0314c0f7b2291e5b200ac8c7c3b925846040518082815260200191505060405180910390a3505050565b6000809054906101000a900473ffffffffffffffffffffffffffffffffffffffff1673ffffffffffffffffffffffffffffffffffffffff163373ffffffffffffffffffffffffffffffffffffffff161415156107c857600080fd5b6000809054906101000a900473ffffffffffffffffffffffffffffffffffffffff1673ffffffffffffffffffffffffffffffffffffffff166108fc3073ffffffffffffffffffffffffffffffffffffffff16319081150290604051600060405180830381858888f19350505050151561084057600080fd5b565b600080600560003373ffffffffffffffffffffffffffffffffffffffff1673ffffffffffffffffffffffffffffffffffffffff1681526020019081526020016000205414151561089157600080fd5b61089a826110ef565b90506064818115156108a857fe5b06810390506108b78282611171565b5050565b60046020528060005260406000206000915054906101000a900473ffffffffffffffffffffffffffffffffffffffff1681565b60006004600083815260200190815260200160002060009054906101000a900473ffffffffffffffffffffffffffffffffffffffff169050919050565b6000600560008373ffffffffffffffffffffffffffffffffffffffff1673ffffffffffffffffffffffffffffffffffffffff168152602001908152602001600020549050919050565b6000809054906101000a900473ffffffffffffffffffffffffffffffffffffffff1681565b6109a16115e1565b6109a96115e1565b600080600560008673ffffffffffffffffffffffffffffffffffffffff1673ffffffffffffffffffffffffffffffffffffffff168152602001908152602001600020546040518059106109f95750595b9080825280602002602001820160405250925060009150600090505b600380549050811015610abc578473ffffffffffffffffffffffffffffffffffffffff166004600083815260200190815260200160002060009054906101000a900473ffffffffffffffffffffffffffffffffffffffff1673ffffffffffffffffffffffffffffffffffffffff161415610aaf57808383815181101515610a9857fe5b906020019060200201818152505081806001019250505b8080600101915050610a15565b829350505050919050565b806004600082815260200190815260200160002060009054906101000a900473ffffffffffffffffffffffffffffffffffffffff1673ffffffffffffffffffffffffffffffffffffffff163373ffffffffffffffffffffffffffffffffffffffff16141515610b3557600080fd5b610b40338484611446565b505050565b60003373ffffffffffffffffffffffffffffffffffffffff166006600084815260200190815260200160002060009054906101000a900473ffffffffffffffffffffffffffffffffffffffff1673ffffffffffffffffffffffffffffffffffffffff16141515610bb457600080fd5b610bbd826108ee565b9050610bca813384611446565b5050565b826004600082815260200190815260200160002060009054906101000a900473ffffffffffffffffffffffffffffffffffffffff1673ffffffffffffffffffffffffffffffffffffffff163373ffffffffffffffffffffffffffffffffffffffff16141515610c3c57600080fd5b6004600085815260200190815260200160002060009054906101000a900473ffffffffffffffffffffffffffffffffffffffff1673ffffffffffffffffffffffffffffffffffffffff163373ffffffffffffffffffffffffffffffffffffffff16141515610ca957600080fd5b8282600386815481101515610cba57fe5b90600052602060002090600602016000019190610cd89291906115f5565b5050505050565b600381815481101515610cee57fe5b9060005260206000209060060201600091509050806000018054600181600116156101000203166002900480601f016020809104026020016040519081016040528092919081815260200182805460018160011615610100020316600290048015610d9a5780601f10610d6f57610100808354040283529160200191610d9a565b820191906000526020600020905b815481529060010190602001808311610d7d57829003601f168201915b5050505050908060010154908060020160009054906101000a900463ffffffff1690806003018054600181600116156101000203166002900480601f016020809104026020016040519081016040528092919081815260200182805460018160011615610100020316600290048015610e545780601f10610e2957610100808354040283529160200191610e54565b820191906000526020600020905b815481529060010190602001808311610e3757829003601f168201915b505050505090806004018054600181600116156101000203166002900480601f016020809104026020016040519081016040528092919081815260200182805460018160011615610100020316600290048015610ef25780601f10610ec757610100808354040283529160200191610ef2565b820191906000526020600020905b815481529060010190602001808311610ed557829003601f168201915b505050505090806005018054600181600116156101000203166002900480601f016020809104026020016040519081016040528092919081815260200182805460018160011615610100020316600290048015610f905780601f10610f6557610100808354040283529160200191610f90565b820191906000526020600020905b815481529060010190602001808311610f7357829003601f168201915b5050505050905086565b6000809054906101000a900473ffffffffffffffffffffffffffffffffffffffff1673ffffffffffffffffffffffffffffffffffffffff163373ffffffffffffffffffffffffffffffffffffffff16141515610ff557600080fd5b600073ffffffffffffffffffffffffffffffffffffffff168173ffffffffffffffffffffffffffffffffffffffff161415151561103157600080fd5b8073ffffffffffffffffffffffffffffffffffffffff166000809054906101000a900473ffffffffffffffffffffffffffffffffffffffff1673ffffffffffffffffffffffffffffffffffffffff167f8be0079c531659141344cd1fd0a4f28419497f9722a3daafe3b4186f6b6457e060405160405180910390a3806000806101000a81548173ffffffffffffffffffffffffffffffffffffffff021916908373ffffffffffffffffffffffffffffffffffffffff16021790555050565b600080826040518082805190602001908083835b6020831015156111285780518252602082019150602081019050602083039250611103565b6001836020036101000a03801982511681845116808217855250505050505090500191505060405180910390206001900490506002548181151561116857fe5b06915050919050565b60006001600380548060010182816111899190611675565b9160005260206000209060060201600060c060405190810160405280888152602001878152602001600063ffffffff168152602001602060405190810160405280600081525081526020016020604051908101604052806000815250815260200160206040519081016040528060008152508152509091909150600082015181600001908051906020019061121f9291906116a7565b506020820151816001015560408201518160020160006101000a81548163ffffffff021916908363ffffffff160217905550606082015181600301908051906020019061126d9291906116a7565b50608082015181600401908051906020019061128a9291906116a7565b5060a08201518160050190805190602001906112a79291906116a7565b505050039050336004600083815260200190815260200160002060006101000a81548173ffffffffffffffffffffffffffffffffffffffff021916908373ffffffffffffffffffffffffffffffffffffffff1602179055506113526001600560003373ffffffffffffffffffffffffffffffffffffffff1673ffffffffffffffffffffffffffffffffffffffff168152602001908152602001600020546115aa90919063ffffffff16565b600560003373ffffffffffffffffffffffffffffffffffffffff1673ffffffffffffffffffffffffffffffffffffffff168152602001908152602001600020819055507f9908d4e967ebd007bf9152e25cbfce9ab7f28ec0cbe231d3291116906a2582f48184846040518084815260200180602001838152602001828103825284818151815260200191508051906020019080838360005b838110156114055780820151818401526020810190506113ea565b50505050905090810190601f1680156114325780820380516001836020036101000a031916815260200191505b5094505050505060405180910390a1505050565b6114996001600560008573ffffffffffffffffffffffffffffffffffffffff1673ffffffffffffffffffffffffffffffffffffffff168152602001908152602001600020546115aa90919063ffffffff16565b506114ed6001600560008673ffffffffffffffffffffffffffffffffffffffff1673ffffffffffffffffffffffffffffffffffffffff168152602001908152602001600020546115c890919063ffffffff16565b50816004600083815260200190815260200160002060006101000a81548173ffffffffffffffffffffffffffffffffffffffff021916908373ffffffffffffffffffffffffffffffffffffffff1602179055508173ffffffffffffffffffffffffffffffffffffffff168373ffffffffffffffffffffffffffffffffffffffff167fddf252ad1be2c89b69c2b068fc378daa952ba7f163c4a11628f55a4df523b3ef836040518082815260200191505060405180910390a3505050565b60008082840190508381101515156115be57fe5b8091505092915050565b60008282111515156115d657fe5b818303905092915050565b602060405190810160405280600081525090565b828054600181600116156101000203166002900490600052602060002090601f016020900481019282601f1061163657803560ff1916838001178555611664565b82800160010185558215611664579182015b82811115611663578235825591602001919060010190611648565b5b5090506116719190611727565b5090565b8154818355818115116116a2576006028160060283600052602060002091820191016116a1919061174c565b5b505050565b828054600181600116156101000203166002900490600052602060002090601f016020900481019282601f106116e857805160ff1916838001178555611716565b82800160010185558215611716579182015b828111156117155782518255916020019190600101906116fa565b5b5090506117239190611727565b5090565b61174991905b8082111561174557600081600090555060010161172d565b5090565b90565b6117c791905b808211156117c3576000808201600061176b91906117ca565b60018201600090556002820160006101000a81549063ffffffff021916905560038201600061179a91906117ca565b6004820160006117aa91906117ca565b6005820160006117ba91906117ca565b50600601611752565b5090565b90565b50805460018160011615610100020316600290046000825580601f106117f0575061180f565b601f01602090049060005260206000209081019061180e9190611727565b5b505600a165627a7a72305820d3556353fa8fd3c01fa6891d38b9e0ab980841e4294e95b0fdafa28ab431c97d0029",
  "source": "pragma solidity ^0.4.19;\n\nimport \"./xrystalhelper.sol\";\nimport \"./erc721.sol\";\n\n\ncontract XrystalOwnership is XrystalHelper, ERC721 {\n\n    using SafeMath for uint256;\n\n    mapping (uint => address) xrystalApprovals;\n\n    function balanceOf(address _owner) public view returns (uint256 _balance) {\n        return ownerXrystalCount[_owner];\n    }\n\n    function ownerOf(uint256 _tokenId) public view returns (address _owner) {\n        return xrystalToOwner[_tokenId];\n    }\n\n    function _transfer(address _from, address _to, uint256 _tokenId) private {\n        ownerXrystalCount[_to].add(1);\n        ownerXrystalCount[_from].sub(1);\n        xrystalToOwner[_tokenId] = _to;\n        Transfer(_from, _to, _tokenId);\n    }\n\n    function transfer(address _to, uint256 _tokenId) public onlyOwnerOf(_tokenId) {\n        _transfer(msg.sender, _to, _tokenId);\n    }\n\n    function approve(address _to, uint256 _tokenId) public onlyOwnerOf(_tokenId) {\n        xrystalApprovals[_tokenId] = _to;\n        Approval(msg.sender, _to, _tokenId);\n    }\n\n    function takeOwnership(uint256 _tokenId) public {\n        require(xrystalApprovals[_tokenId] == msg.sender);\n        address owner = ownerOf(_tokenId);\n        _transfer(owner, msg.sender, _tokenId);\n    }\n}\n",
  "sourcePath": "/Users/Guest/Desktop/xrystal/contracts/xrystalownership.sol",
  "compiler": {
    "name": "solc",
    "version": "0.4.21+commit.dfe3193c.Emscripten.clang"
  },
  "schemaVersion": "2.0.0",
  "updatedAt": "2018-04-12T06:37:21.155Z"
}